{
  "contractName": "Tictactoe",
  "abi": [
    {
      "inputs": [],
      "stateMutability": "nonpayable",
      "type": "constructor"
    },
    {
      "anonymous": false,
      "inputs": [
        {
          "indexed": false,
          "internalType": "uint256",
          "name": "id",
          "type": "uint256"
        },
        {
          "indexed": false,
          "internalType": "address",
          "name": "creator",
          "type": "address"
        }
      ],
      "name": "GameCreated",
      "type": "event"
    },
    {
      "anonymous": false,
      "inputs": [
        {
          "indexed": false,
          "internalType": "uint256",
          "name": "id",
          "type": "uint256"
        },
        {
          "indexed": false,
          "internalType": "address",
          "name": "winner",
          "type": "address"
        }
      ],
      "name": "GameFinished",
      "type": "event"
    },
    {
      "anonymous": false,
      "inputs": [
        {
          "indexed": false,
          "internalType": "uint256",
          "name": "id",
          "type": "uint256"
        },
        {
          "indexed": false,
          "internalType": "address",
          "name": "joiner",
          "type": "address"
        },
        {
          "indexed": false,
          "internalType": "bool",
          "name": "isCreatorFirstMove",
          "type": "bool"
        }
      ],
      "name": "GameJoined",
      "type": "event"
    },
    {
      "anonymous": false,
      "inputs": [
        {
          "indexed": false,
          "internalType": "uint256",
          "name": "id",
          "type": "uint256"
        },
        {
          "indexed": false,
          "internalType": "address",
          "name": "player",
          "type": "address"
        },
        {
          "indexed": false,
          "internalType": "uint256",
          "name": "x",
          "type": "uint256"
        },
        {
          "indexed": false,
          "internalType": "uint256",
          "name": "y",
          "type": "uint256"
        }
      ],
      "name": "MoveMade",
      "type": "event"
    },
    {
      "inputs": [],
      "name": "createGame",
      "outputs": [],
      "stateMutability": "nonpayable",
      "type": "function"
    },
    {
      "inputs": [
        {
          "internalType": "uint256",
          "name": "_id",
          "type": "uint256"
        }
      ],
      "name": "joinGame",
      "outputs": [],
      "stateMutability": "nonpayable",
      "type": "function"
    },
    {
      "inputs": [
        {
          "internalType": "uint256",
          "name": "_id",
          "type": "uint256"
        },
        {
          "internalType": "uint256",
          "name": "_x",
          "type": "uint256"
        },
        {
          "internalType": "uint256",
          "name": "_y",
          "type": "uint256"
        }
      ],
      "name": "makeMove",
      "outputs": [],
      "stateMutability": "nonpayable",
      "type": "function"
    }
  ],
  "bytecode": "0x608060405234801561001057600080fd5b50611889806100206000396000f3fe608060405234801561001057600080fd5b50600436106100415760003560e01c80637255d72914610046578063cfc2f5ff14610050578063efaa55a01461006c575b600080fd5b61004e610088565b005b61006a6004803603810190610065919061132f565b610246565b005b61008660048036038101906100819190611382565b610e3f565b005b6001600081548092919061009b906113de565b91905055506100a86110da565b33816000019073ffffffffffffffffffffffffffffffffffffffff16908173ffffffffffffffffffffffffffffffffffffffff168152505080600080600154815260200190815260200160002060008201518160000160006101000a81548173ffffffffffffffffffffffffffffffffffffffff021916908373ffffffffffffffffffffffffffffffffffffffff16021790555060208201518160010160006101000a81548173ffffffffffffffffffffffffffffffffffffffff021916908373ffffffffffffffffffffffffffffffffffffffff16021790555060408201518160010160146101000a81548160ff021916908360028111156101ae576101ad611426565b5b021790555060608201518160010160156101000a81548160ff021916908360038111156101de576101dd611426565b5b02179055506080820151816002019060036101fa929190611166565b5060a082015181600501559050507fc3e0f84839dc888c892a013d10c8f9d6dc05a21a879d0ce468ca558013e9121c6001543360405161023b9291906114a5565b60405180910390a150565b82600073ffffffffffffffffffffffffffffffffffffffff1660008083815260200190815260200160002060000160009054906101000a900473ffffffffffffffffffffffffffffffffffffffff1673ffffffffffffffffffffffffffffffffffffffff16036102eb576040517f08c379a00000000000000000000000000000000000000000000000000000000081526004016102e29061152b565b60405180910390fd5b6000806000868152602001908152602001600020905060006001600281111561031757610316611426565b5b8260010160149054906101000a900460ff16600281111561033b5761033a611426565b5b14801561039757503373ffffffffffffffffffffffffffffffffffffffff168260000160009054906101000a900473ffffffffffffffffffffffffffffffffffffffff1673ffffffffffffffffffffffffffffffffffffffff16145b156103b5578160010160149054906101000a900460ff169050610463565b6002808111156103c8576103c7611426565b5b8260010160149054906101000a900460ff1660028111156103ec576103eb611426565b5b14801561044857503373ffffffffffffffffffffffffffffffffffffffff168260010160009054906101000a900473ffffffffffffffffffffffffffffffffffffffff1673ffffffffffffffffffffffffffffffffffffffff16145b15610462578160010160149054906101000a900460ff1690505b5b6000600281111561047757610476611426565b5b81600281111561048a57610489611426565b5b036104ca576040517f08c379a00000000000000000000000000000000000000000000000000000000081526004016104c190611597565b60405180910390fd5b6003851080156104da5750600384105b80156105485750600060028111156104f5576104f4611426565b5b82600201866003811061050b5761050a6115b7565b5b01856003811061051e5761051d6115b7565b5b602091828204019190069054906101000a900460ff16600281111561054657610545611426565b5b145b610587576040517f08c379a000000000000000000000000000000000000000000000000000000000815260040161057e90611632565b60405180910390fd5b8082600201866003811061059e5761059d6115b7565b5b0185600381106105b1576105b06115b7565b5b602091828204019190066101000a81548160ff021916908360028111156105db576105da611426565b5b0217905550600182600501546105f19190611652565b82600501819055507f575f1f76ee2294a7f954705e84e987596a8f2a7c3e162aea6ef8e0690cc251428633878760405161062e9493929190611686565b60405180910390a160008260020160016003811061064f5761064e6115b7565b5b018560038110610662576106616115b7565b5b602091828204019190069054906101000a900460ff16600281111561068a57610689611426565b5b836002016000600381106106a1576106a06115b7565b5b0186600381106106b4576106b36115b7565b5b602091828204019190069054906101000a900460ff1660028111156106dc576106db611426565b5b14801561078a5750826002016002600381106106fb576106fa6115b7565b5b01856003811061070e5761070d6115b7565b5b602091828204019190069054906101000a900460ff16600281111561073657610735611426565b5b8360020160016003811061074d5761074c6115b7565b5b0186600381106107605761075f6115b7565b5b602091828204019190069054906101000a900460ff16600281111561078857610787611426565b5b145b156107985760019050610be1565b8260020186600381106107ae576107ad6115b7565b5b016001600381106107c2576107c16115b7565b5b602091828204019190069054906101000a900460ff1660028111156107ea576107e9611426565b5b836002018760038110610800576107ff6115b7565b5b01600060038110610814576108136115b7565b5b602091828204019190069054906101000a900460ff16600281111561083c5761083b611426565b5b1480156108ea575082600201866003811061085a576108596115b7565b5b0160026003811061086e5761086d6115b7565b5b602091828204019190069054906101000a900460ff16600281111561089657610895611426565b5b8360020187600381106108ac576108ab6115b7565b5b016001600381106108c0576108bf6115b7565b5b602091828204019190069054906101000a900460ff1660028111156108e8576108e7611426565b5b145b156108f85760019050610be0565b6002858761090691906116cb565b1480156109b6575082600201600160038110610925576109246115b7565b5b01600160038110610939576109386115b7565b5b602091828204019190069054906101000a900460ff16600281111561096157610960611426565b5b83600201600260038110610978576109776115b7565b5b0160006003811061098c5761098b6115b7565b5b602091828204019190069054906101000a900460ff1660028111156109b4576109b3611426565b5b145b8015610a655750826002016000600381106109d4576109d36115b7565b5b016002600381106109e8576109e76115b7565b5b602091828204019190069054906101000a900460ff166002811115610a1057610a0f611426565b5b83600201600160038110610a2757610a266115b7565b5b01600160038110610a3b57610a3a6115b7565b5b602091828204019190069054906101000a900460ff166002811115610a6357610a62611426565b5b145b15610a735760019050610bdf565b8486148015610b25575082600201600160038110610a9457610a936115b7565b5b01600160038110610aa857610aa76115b7565b5b602091828204019190069054906101000a900460ff166002811115610ad057610acf611426565b5b83600201600060038110610ae757610ae66115b7565b5b01600060038110610afb57610afa6115b7565b5b602091828204019190069054906101000a900460ff166002811115610b2357610b22611426565b5b145b8015610bd4575082600201600260038110610b4357610b426115b7565b5b01600260038110610b5757610b566115b7565b5b602091828204019190069054906101000a900460ff166002811115610b7f57610b7e611426565b5b83600201600160038110610b9657610b956115b7565b5b01600160038110610baa57610ba96115b7565b5b602091828204019190069054906101000a900460ff166002811115610bd257610bd1611426565b5b145b15610bde57600190505b5b5b5b8015610d2e5760016002811115610bfb57610bfa611426565b5b826002811115610c0e57610c0d611426565b5b14610c1a576002610c1d565b60015b8360010160156101000a81548160ff02191690836003811115610c4357610c42611426565b5b021790555060008360010160146101000a81548160ff02191690836002811115610c7057610c6f611426565b5b02179055507fb7f35e624e036288272fbf3342c09219261ff29fdddd826989b289134e9ae5358760016002811115610cab57610caa611426565b5b846002811115610cbe57610cbd611426565b5b14610ced578460010160009054906101000a900473ffffffffffffffffffffffffffffffffffffffff16610d13565b8460000160009054906101000a900473ffffffffffffffffffffffffffffffffffffffff165b604051610d219291906114a5565b60405180910390a1610e36565b6000836005015403610dd35760038360010160156101000a81548160ff02191690836003811115610d6257610d61611426565b5b021790555060008360010160146101000a81548160ff02191690836002811115610d8f57610d8e611426565b5b02179055507fb7f35e624e036288272fbf3342c09219261ff29fdddd826989b289134e9ae535876000604051610dc69291906114a5565b60405180910390a1610e35565b60016002811115610de757610de6611426565b5b826002811115610dfa57610df9611426565b5b14610e06576001610e09565b60025b8360010160146101000a81548160ff02191690836002811115610e2f57610e2e611426565b5b02179055505b5b50505050505050565b80600073ffffffffffffffffffffffffffffffffffffffff1660008083815260200190815260200160002060000160009054906101000a900473ffffffffffffffffffffffffffffffffffffffff1673ffffffffffffffffffffffffffffffffffffffff1603610ee4576040517f08c379a0000000000000000000000000000000000000000000000000000000008152600401610edb9061152b565b60405180910390fd5b60008060008481526020019081526020016000209050600073ffffffffffffffffffffffffffffffffffffffff168160010160009054906101000a900473ffffffffffffffffffffffffffffffffffffffff1673ffffffffffffffffffffffffffffffffffffffff1614610f8d576040517f08c379a0000000000000000000000000000000000000000000000000000000008152600401610f849061176d565b60405180910390fd5b338160010160006101000a81548173ffffffffffffffffffffffffffffffffffffffff021916908373ffffffffffffffffffffffffffffffffffffffff16021790555060006110248260000160009054906101000a900473ffffffffffffffffffffffffffffffffffffffff168360010160009054906101000a900473ffffffffffffffffffffffffffffffffffffffff166110ab565b905080611032576002611035565b60015b8260010160146101000a81548160ff0219169083600281111561105b5761105a611426565b5b0217905550600982600501819055507ff57bced917dc39a724dbbb6c407da9f7b7101cfd79f6bc76d5fefec05d86279a84338360405161109d939291906117a8565b60405180910390a150505050565b600082826040516020016110c0929190611827565b604051602081830303815290604052506001905092915050565b6040518060c00160405280600073ffffffffffffffffffffffffffffffffffffffff168152602001600073ffffffffffffffffffffffffffffffffffffffff1681526020016000600281111561113357611132611426565b5b81526020016000600381111561114c5761114b611426565b5b81526020016111596111b4565b8152602001600081525090565b82600381019282156111a3579160200282015b828111156111a2578251829060036111929291906111e1565b5091602001919060010190611179565b5b5090506111b0919061128a565b5090565b60405180606001604052806003905b6111cb6112ae565b8152602001906001900390816111c35790505090565b826003601f016020900481019282156112795791602002820160005b8382111561124a57835183826101000a81548160ff0219169083600281111561122957611228611426565b5b021790555092602001926001016020816000010492830192600103026111fd565b80156112775782816101000a81549060ff021916905560010160208160000104928301926001030261124a565b505b50905061128691906112d0565b5090565b5b808211156112aa57600081816112a191906112ed565b5060010161128b565b5090565b6040518060600160405280600390602082028036833780820191505090505090565b5b808211156112e95760008160009055506001016112d1565b5090565b5060009055565b600080fd5b6000819050919050565b61130c816112f9565b811461131757600080fd5b50565b60008135905061132981611303565b92915050565b600080600060608486031215611348576113476112f4565b5b60006113568682870161131a565b93505060206113678682870161131a565b92505060406113788682870161131a565b9150509250925092565b600060208284031215611398576113976112f4565b5b60006113a68482850161131a565b91505092915050565b7f4e487b7100000000000000000000000000000000000000000000000000000000600052601160045260246000fd5b60006113e9826112f9565b91507fffffffffffffffffffffffffffffffffffffffffffffffffffffffffffffffff820361141b5761141a6113af565b5b600182019050919050565b7f4e487b7100000000000000000000000000000000000000000000000000000000600052602160045260246000fd5b61145e816112f9565b82525050565b600073ffffffffffffffffffffffffffffffffffffffff82169050919050565b600061148f82611464565b9050919050565b61149f81611484565b82525050565b60006040820190506114ba6000830185611455565b6114c76020830184611496565b9392505050565b600082825260208201905092915050565b7f496e76616c69642067616d650000000000000000000000000000000000000000600082015250565b6000611515600c836114ce565b9150611520826114df565b602082019050919050565b6000602082019050818103600083015261154481611508565b9050919050565b7f496e76616c6964205475726e0000000000000000000000000000000000000000600082015250565b6000611581600c836114ce565b915061158c8261154b565b602082019050919050565b600060208201905081810360008301526115b081611574565b9050919050565b7f4e487b7100000000000000000000000000000000000000000000000000000000600052603260045260246000fd5b7f496e76616c69642063656c6c0000000000000000000000000000000000000000600082015250565b600061161c600c836114ce565b9150611627826115e6565b602082019050919050565b6000602082019050818103600083015261164b8161160f565b9050919050565b600061165d826112f9565b9150611668836112f9565b92508282101561167b5761167a6113af565b5b828203905092915050565b600060808201905061169b6000830187611455565b6116a86020830186611496565b6116b56040830185611455565b6116c26060830184611455565b95945050505050565b60006116d6826112f9565b91506116e1836112f9565b9250827fffffffffffffffffffffffffffffffffffffffffffffffffffffffffffffffff03821115611716576117156113af565b5b828201905092915050565b7f416c7265616479206d6174636865642067616d65000000000000000000000000600082015250565b60006117576014836114ce565b915061176282611721565b602082019050919050565b600060208201905081810360008301526117868161174a565b9050919050565b60008115159050919050565b6117a28161178d565b82525050565b60006060820190506117bd6000830186611455565b6117ca6020830185611496565b6117d76040830184611799565b949350505050565b60008160601b9050919050565b60006117f7826117df565b9050919050565b6000611809826117ec565b9050919050565b61182161181c82611484565b6117fe565b82525050565b60006118338285611810565b6014820191506118438284611810565b601482019150819050939250505056fea2646970667358221220a0559ad7572a7522a72b2bbb72331cd5f36128cb3d7123c061cb4386591a396a64736f6c634300080d0033",
  "immutableReferences": {},
  "source": "// SPDX-License-Identifier: MIT\npragma solidity >=0.8.0 <0.9.0;\n\ncontract Tictactoe {\n    enum Winner {\n        None,\n        PlayerOne,\n        PlayerTwo,\n        Draw\n    }\n\n    enum Player {\n        None,\n        PlayerOne,\n        PlayerTwo\n    }\n\n    struct Game {\n        address playerOne; // creator\n        address playerTwo; // joiner\n        Player turn;\n        Winner winner;\n        Player[3][3] board;\n        uint256 emptyCells;\n    }\n\n    mapping (uint256 => Game) private games;\n    uint256 private counter;\n\n    constructor() public {\n    }\n\n    modifier isValidGame(uint256 _id) {\n        require(games[_id].playerOne != address(0), \"Invalid game\");\n        _;\n    }\n\n    function createGame() external {\n        counter++;\n        Game memory game;\n        game.playerOne = msg.sender;\n\n        games[counter] = game;\n\n        emit GameCreated(counter, msg.sender);\n    }\n    \n    function joinGame(uint256 _id) external isValidGame(_id) {\n        Game storage game = games[_id];\n        require(game.playerTwo == address(0), \"Already matched game\");\n        \n        game.playerTwo = msg.sender;\n\n        bool isCreatorFirstMove = _calcFirstPlayer(game.playerOne, game.playerTwo);\n        game.turn = isCreatorFirstMove ? Player.PlayerOne : Player.PlayerTwo;\n        game.emptyCells = 9;\n        \n        emit GameJoined(_id, msg.sender, isCreatorFirstMove);\n    }\n\n    function makeMove(uint256 _id, uint _x, uint _y) external isValidGame(_id) {\n        Game storage game = games[_id];\n        Player turn = Player.None;\n        if (game.turn == Player.PlayerOne && game.playerOne == msg.sender) {\n            turn = game.turn;\n        }\n        else if (game.turn == Player.PlayerTwo && game.playerTwo == msg.sender) {\n            turn = game.turn;\n        }\n        require(turn != Player.None, \"Invalid Turn\");\n        require(_x < 3 && _y < 3 && game.board[_x][_y] == Player.None, \"Invalid cell\");\n\n        game.board[_x][_y] = turn;\n        game.emptyCells = game.emptyCells - 1;\n\n        emit MoveMade(_id, msg.sender, _x, _y);\n\n        bool win = false;\n\n        if (game.board[0][_y] == game.board[1][_y] && game.board[1][_y] == game.board[2][_y]) win = true;\n        else if (game.board[_x][0] == game.board[_x][1] && game.board[_x][1] == game.board[_x][2]) win = true;\n        else if ((_x + _y) == 2 && game.board[2][0] == game.board[1][1] && game.board[1][1] == game.board[0][2]) win = true;\n        else if (_x == _y && game.board[0][0] == game.board[1][1] && game.board[1][1] == game.board[2][2]) win = true;\n\n        if (win) {\n            game.winner = turn == Player.PlayerOne ? Winner.PlayerOne : Winner.PlayerTwo;\n            game.turn = Player.None;\n            emit GameFinished(_id, turn == Player.PlayerOne ? game.playerOne : game.playerTwo);\n        }\n        else if (game.emptyCells == 0) {\n            game.winner = Winner.Draw;\n            game.turn = Player.None;\n            emit GameFinished(_id, address(0));\n        }\n        else {\n            game.turn = turn == Player.PlayerOne ? Player.PlayerTwo : Player.PlayerOne;\n        }\n    }\n\n    function _calcFirstPlayer(address playerOne, address playerTwo) private pure returns (bool) {\n        abi.encodePacked(playerOne, playerTwo);\n        return true;\n    }\n\n    event GameCreated(uint256 id, address creator);\n    event GameJoined(uint256 id, address joiner, bool isCreatorFirstMove);\n    event MoveMade(uint256 id, address player, uint x, uint y);\n    event GameFinished(uint256 id, address winner);\n}\n",
  "sourcePath": "E:\\JobHunting\\20220511_Axelar\\solidity-tictactoe\\smart-contract\\contracts\\Tictactoe.sol",
  "compiler": {
    "name": "solc",
    "version": "0.8.13+commit.abaa5c0e.Emscripten.clang"
  },
  "schemaVersion": "3.4.7",
  "updatedAt": "2022-05-16T20:58:45.479Z",
  "networkType": "ethereum",
  "devdoc": {
    "kind": "dev",
    "methods": {},
    "version": 1
  },
  "userdoc": {
    "kind": "user",
    "methods": {},
    "version": 1
  }
}