{
  "contractName": "Tictactoe",
  "abi": [
    {
      "inputs": [],
      "stateMutability": "nonpayable",
      "type": "constructor"
    },
    {
      "anonymous": false,
      "inputs": [
        {
          "indexed": false,
          "internalType": "uint256",
          "name": "id",
          "type": "uint256"
        },
        {
          "indexed": false,
          "internalType": "address",
          "name": "creator",
          "type": "address"
        }
      ],
      "name": "GameCreated",
      "type": "event"
    },
    {
      "anonymous": false,
      "inputs": [
        {
          "indexed": false,
          "internalType": "uint256",
          "name": "id",
          "type": "uint256"
        },
        {
          "indexed": false,
          "internalType": "address",
          "name": "winner",
          "type": "address"
        }
      ],
      "name": "GameFinished",
      "type": "event"
    },
    {
      "anonymous": false,
      "inputs": [
        {
          "indexed": false,
          "internalType": "uint256",
          "name": "id",
          "type": "uint256"
        },
        {
          "indexed": false,
          "internalType": "address",
          "name": "joiner",
          "type": "address"
        },
        {
          "indexed": false,
          "internalType": "bool",
          "name": "isCreatorFirstMove",
          "type": "bool"
        }
      ],
      "name": "GameJoined",
      "type": "event"
    },
    {
      "anonymous": false,
      "inputs": [
        {
          "indexed": false,
          "internalType": "uint256",
          "name": "id",
          "type": "uint256"
        },
        {
          "indexed": false,
          "internalType": "address",
          "name": "player",
          "type": "address"
        },
        {
          "indexed": false,
          "internalType": "uint256",
          "name": "x",
          "type": "uint256"
        },
        {
          "indexed": false,
          "internalType": "uint256",
          "name": "y",
          "type": "uint256"
        }
      ],
      "name": "MoveMade",
      "type": "event"
    },
    {
      "inputs": [
        {
          "internalType": "uint256",
          "name": "",
          "type": "uint256"
        }
      ],
      "name": "games",
      "outputs": [
        {
          "internalType": "address",
          "name": "playerOne",
          "type": "address"
        },
        {
          "internalType": "address",
          "name": "playerTwo",
          "type": "address"
        },
        {
          "internalType": "enum Tictactoe.Player",
          "name": "turn",
          "type": "uint8"
        },
        {
          "internalType": "enum Tictactoe.Winner",
          "name": "winner",
          "type": "uint8"
        },
        {
          "internalType": "uint256",
          "name": "emptyCells",
          "type": "uint256"
        }
      ],
      "stateMutability": "view",
      "type": "function"
    },
    {
      "inputs": [],
      "name": "createGame",
      "outputs": [],
      "stateMutability": "nonpayable",
      "type": "function"
    },
    {
      "inputs": [
        {
          "internalType": "uint256",
          "name": "_id",
          "type": "uint256"
        }
      ],
      "name": "joinGame",
      "outputs": [],
      "stateMutability": "nonpayable",
      "type": "function"
    },
    {
      "inputs": [
        {
          "internalType": "uint256",
          "name": "_id",
          "type": "uint256"
        },
        {
          "internalType": "uint256",
          "name": "_x",
          "type": "uint256"
        },
        {
          "internalType": "uint256",
          "name": "_y",
          "type": "uint256"
        }
      ],
      "name": "makeMove",
      "outputs": [],
      "stateMutability": "nonpayable",
      "type": "function"
    },
    {
      "inputs": [
        {
          "internalType": "uint256",
          "name": "_id",
          "type": "uint256"
        }
      ],
      "name": "getBoard",
      "outputs": [
        {
          "internalType": "uint256[3][3]",
          "name": "board",
          "type": "uint256[3][3]"
        }
      ],
      "stateMutability": "view",
      "type": "function"
    }
  ],
  "bytecode": "0x608060405234801561001057600080fd5b50611dcf806100206000396000f3fe608060405234801561001057600080fd5b50600436106100575760003560e01c8063117a5b901461005c57806345e09e54146100905780637255d729146100c0578063cfc2f5ff146100ca578063efaa55a0146100e6575b600080fd5b6100766004803603810190610071919061162f565b610102565b60405161008795949392919061176b565b60405180910390f35b6100aa60048036038101906100a5919061162f565b610192565b6040516100b79190611905565b60405180910390f35b6100c8610320565b005b6100e460048036038101906100df9190611921565b6104de565b005b61010060048036038101906100fb919061162f565b6110d7565b005b60006020528060005260406000206000915090508060000160009054906101000a900473ffffffffffffffffffffffffffffffffffffffff16908060010160009054906101000a900473ffffffffffffffffffffffffffffffffffffffff16908060010160149054906101000a900460ff16908060010160159054906101000a900460ff16908060050154905085565b61019a61138b565b81600073ffffffffffffffffffffffffffffffffffffffff1660008083815260200190815260200160002060000160009054906101000a900473ffffffffffffffffffffffffffffffffffffffff1673ffffffffffffffffffffffffffffffffffffffff160361023f576040517f08c379a0000000000000000000000000000000000000000000000000000000008152600401610236906119d1565b60405180910390fd5b6000806000858152602001908152602001600020905060005b60038110156103185760005b600381101561030457826002018260038110610283576102826119f1565b5b018160038110610296576102956119f1565b5b602091828204019190069054906101000a900460ff1660028111156102be576102bd61169d565b5b8583600381106102d1576102d06119f1565b5b602002015182600381106102e8576102e76119f1565b5b60200201818152505080806102fc90611a4f565b915050610264565b50808061031090611a4f565b915050610258565b505050919050565b6001600081548092919061033390611a4f565b91905055506103406113b8565b33816000019073ffffffffffffffffffffffffffffffffffffffff16908173ffffffffffffffffffffffffffffffffffffffff168152505080600080600154815260200190815260200160002060008201518160000160006101000a81548173ffffffffffffffffffffffffffffffffffffffff021916908373ffffffffffffffffffffffffffffffffffffffff16021790555060208201518160010160006101000a81548173ffffffffffffffffffffffffffffffffffffffff021916908373ffffffffffffffffffffffffffffffffffffffff16021790555060408201518160010160146101000a81548160ff021916908360028111156104465761044561169d565b5b021790555060608201518160010160156101000a81548160ff021916908360038111156104765761047561169d565b5b0217905550608082015181600201906003610492929190611444565b5060a082015181600501559050507fc3e0f84839dc888c892a013d10c8f9d6dc05a21a879d0ce468ca558013e9121c600154336040516104d3929190611a97565b60405180910390a150565b82600073ffffffffffffffffffffffffffffffffffffffff1660008083815260200190815260200160002060000160009054906101000a900473ffffffffffffffffffffffffffffffffffffffff1673ffffffffffffffffffffffffffffffffffffffff1603610583576040517f08c379a000000000000000000000000000000000000000000000000000000000815260040161057a906119d1565b60405180910390fd5b600080600086815260200190815260200160002090506000600160028111156105af576105ae61169d565b5b8260010160149054906101000a900460ff1660028111156105d3576105d261169d565b5b14801561062f57503373ffffffffffffffffffffffffffffffffffffffff168260000160009054906101000a900473ffffffffffffffffffffffffffffffffffffffff1673ffffffffffffffffffffffffffffffffffffffff16145b1561064d578160010160149054906101000a900460ff1690506106fb565b6002808111156106605761065f61169d565b5b8260010160149054906101000a900460ff1660028111156106845761068361169d565b5b1480156106e057503373ffffffffffffffffffffffffffffffffffffffff168260010160009054906101000a900473ffffffffffffffffffffffffffffffffffffffff1673ffffffffffffffffffffffffffffffffffffffff16145b156106fa578160010160149054906101000a900460ff1690505b5b6000600281111561070f5761070e61169d565b5b8160028111156107225761072161169d565b5b03610762576040517f08c379a000000000000000000000000000000000000000000000000000000000815260040161075990611b0c565b60405180910390fd5b6003851080156107725750600384105b80156107e057506000600281111561078d5761078c61169d565b5b8260020186600381106107a3576107a26119f1565b5b0185600381106107b6576107b56119f1565b5b602091828204019190069054906101000a900460ff1660028111156107de576107dd61169d565b5b145b61081f576040517f08c379a000000000000000000000000000000000000000000000000000000000815260040161081690611b78565b60405180910390fd5b80826002018660038110610836576108356119f1565b5b018560038110610849576108486119f1565b5b602091828204019190066101000a81548160ff021916908360028111156108735761087261169d565b5b0217905550600182600501546108899190611b98565b82600501819055507f575f1f76ee2294a7f954705e84e987596a8f2a7c3e162aea6ef8e0690cc25142863387876040516108c69493929190611bcc565b60405180910390a16000826002016001600381106108e7576108e66119f1565b5b0185600381106108fa576108f96119f1565b5b602091828204019190069054906101000a900460ff1660028111156109225761092161169d565b5b83600201600060038110610939576109386119f1565b5b01866003811061094c5761094b6119f1565b5b602091828204019190069054906101000a900460ff1660028111156109745761097361169d565b5b148015610a22575082600201600260038110610993576109926119f1565b5b0185600381106109a6576109a56119f1565b5b602091828204019190069054906101000a900460ff1660028111156109ce576109cd61169d565b5b836002016001600381106109e5576109e46119f1565b5b0186600381106109f8576109f76119f1565b5b602091828204019190069054906101000a900460ff166002811115610a2057610a1f61169d565b5b145b15610a305760019050610e79565b826002018660038110610a4657610a456119f1565b5b01600160038110610a5a57610a596119f1565b5b602091828204019190069054906101000a900460ff166002811115610a8257610a8161169d565b5b836002018760038110610a9857610a976119f1565b5b01600060038110610aac57610aab6119f1565b5b602091828204019190069054906101000a900460ff166002811115610ad457610ad361169d565b5b148015610b825750826002018660038110610af257610af16119f1565b5b01600260038110610b0657610b056119f1565b5b602091828204019190069054906101000a900460ff166002811115610b2e57610b2d61169d565b5b836002018760038110610b4457610b436119f1565b5b01600160038110610b5857610b576119f1565b5b602091828204019190069054906101000a900460ff166002811115610b8057610b7f61169d565b5b145b15610b905760019050610e78565b60028587610b9e9190611c11565b148015610c4e575082600201600160038110610bbd57610bbc6119f1565b5b01600160038110610bd157610bd06119f1565b5b602091828204019190069054906101000a900460ff166002811115610bf957610bf861169d565b5b83600201600260038110610c1057610c0f6119f1565b5b01600060038110610c2457610c236119f1565b5b602091828204019190069054906101000a900460ff166002811115610c4c57610c4b61169d565b5b145b8015610cfd575082600201600060038110610c6c57610c6b6119f1565b5b01600260038110610c8057610c7f6119f1565b5b602091828204019190069054906101000a900460ff166002811115610ca857610ca761169d565b5b83600201600160038110610cbf57610cbe6119f1565b5b01600160038110610cd357610cd26119f1565b5b602091828204019190069054906101000a900460ff166002811115610cfb57610cfa61169d565b5b145b15610d0b5760019050610e77565b8486148015610dbd575082600201600160038110610d2c57610d2b6119f1565b5b01600160038110610d4057610d3f6119f1565b5b602091828204019190069054906101000a900460ff166002811115610d6857610d6761169d565b5b83600201600060038110610d7f57610d7e6119f1565b5b01600060038110610d9357610d926119f1565b5b602091828204019190069054906101000a900460ff166002811115610dbb57610dba61169d565b5b145b8015610e6c575082600201600260038110610ddb57610dda6119f1565b5b01600260038110610def57610dee6119f1565b5b602091828204019190069054906101000a900460ff166002811115610e1757610e1661169d565b5b83600201600160038110610e2e57610e2d6119f1565b5b01600160038110610e4257610e416119f1565b5b602091828204019190069054906101000a900460ff166002811115610e6a57610e6961169d565b5b145b15610e7657600190505b5b5b5b8015610fc65760016002811115610e9357610e9261169d565b5b826002811115610ea657610ea561169d565b5b14610eb2576002610eb5565b60015b8360010160156101000a81548160ff02191690836003811115610edb57610eda61169d565b5b021790555060008360010160146101000a81548160ff02191690836002811115610f0857610f0761169d565b5b02179055507fb7f35e624e036288272fbf3342c09219261ff29fdddd826989b289134e9ae5358760016002811115610f4357610f4261169d565b5b846002811115610f5657610f5561169d565b5b14610f85578460010160009054906101000a900473ffffffffffffffffffffffffffffffffffffffff16610fab565b8460000160009054906101000a900473ffffffffffffffffffffffffffffffffffffffff165b604051610fb9929190611a97565b60405180910390a16110ce565b600083600501540361106b5760038360010160156101000a81548160ff02191690836003811115610ffa57610ff961169d565b5b021790555060008360010160146101000a81548160ff021916908360028111156110275761102661169d565b5b02179055507fb7f35e624e036288272fbf3342c09219261ff29fdddd826989b289134e9ae53587600060405161105e929190611a97565b60405180910390a16110cd565b6001600281111561107f5761107e61169d565b5b8260028111156110925761109161169d565b5b1461109e5760016110a1565b60025b8360010160146101000a81548160ff021916908360028111156110c7576110c661169d565b5b02179055505b5b50505050505050565b80600073ffffffffffffffffffffffffffffffffffffffff1660008083815260200190815260200160002060000160009054906101000a900473ffffffffffffffffffffffffffffffffffffffff1673ffffffffffffffffffffffffffffffffffffffff160361117c576040517f08c379a0000000000000000000000000000000000000000000000000000000008152600401611173906119d1565b60405180910390fd5b60008060008481526020019081526020016000209050600073ffffffffffffffffffffffffffffffffffffffff168160010160009054906101000a900473ffffffffffffffffffffffffffffffffffffffff1673ffffffffffffffffffffffffffffffffffffffff1614611225576040517f08c379a000000000000000000000000000000000000000000000000000000000815260040161121c90611cb3565b60405180910390fd5b338160010160006101000a81548173ffffffffffffffffffffffffffffffffffffffff021916908373ffffffffffffffffffffffffffffffffffffffff16021790555060006112bc8260000160009054906101000a900473ffffffffffffffffffffffffffffffffffffffff168360010160009054906101000a900473ffffffffffffffffffffffffffffffffffffffff16611343565b9050806112ca5760026112cd565b60015b8260010160146101000a81548160ff021916908360028111156112f3576112f261169d565b5b0217905550600982600501819055507ff57bced917dc39a724dbbb6c407da9f7b7101cfd79f6bc76d5fefec05d86279a84338360405161133593929190611cee565b60405180910390a150505050565b6000808383604051602001611359929190611d6d565b6040516020818303038152906040528051906020012060001c9050600060ff82901c9050600081149250505092915050565b60405180606001604052806003905b6113a2611492565b81526020019060019003908161139a5790505090565b6040518060c00160405280600073ffffffffffffffffffffffffffffffffffffffff168152602001600073ffffffffffffffffffffffffffffffffffffffff168152602001600060028111156114115761141061169d565b5b81526020016000600381111561142a5761142961169d565b5b81526020016114376114b4565b8152602001600081525090565b8260038101928215611481579160200282015b82811115611480578251829060036114709291906114e1565b5091602001919060010190611457565b5b50905061148e919061158a565b5090565b6040518060600160405280600390602082028036833780820191505090505090565b60405180606001604052806003905b6114cb6115ae565b8152602001906001900390816114c35790505090565b826003601f016020900481019282156115795791602002820160005b8382111561154a57835183826101000a81548160ff021916908360028111156115295761152861169d565b5b021790555092602001926001016020816000010492830192600103026114fd565b80156115775782816101000a81549060ff021916905560010160208160000104928301926001030261154a565b505b50905061158691906115d0565b5090565b5b808211156115aa57600081816115a191906115ed565b5060010161158b565b5090565b6040518060600160405280600390602082028036833780820191505090505090565b5b808211156115e95760008160009055506001016115d1565b5090565b5060009055565b600080fd5b6000819050919050565b61160c816115f9565b811461161757600080fd5b50565b60008135905061162981611603565b92915050565b600060208284031215611645576116446115f4565b5b60006116538482850161161a565b91505092915050565b600073ffffffffffffffffffffffffffffffffffffffff82169050919050565b60006116878261165c565b9050919050565b6116978161167c565b82525050565b7f4e487b7100000000000000000000000000000000000000000000000000000000600052602160045260246000fd5b600381106116dd576116dc61169d565b5b50565b60008190506116ee826116cc565b919050565b60006116fe826116e0565b9050919050565b61170e816116f3565b82525050565b600481106117255761172461169d565b5b50565b600081905061173682611714565b919050565b600061174682611728565b9050919050565b6117568161173b565b82525050565b611765816115f9565b82525050565b600060a082019050611780600083018861168e565b61178d602083018761168e565b61179a6040830186611705565b6117a7606083018561174d565b6117b4608083018461175c565b9695505050505050565b600060039050919050565b600081905092915050565b6000819050919050565b600060039050919050565b600081905092915050565b6000819050919050565b611807816115f9565b82525050565b600061181983836117fe565b60208301905092915050565b6000602082019050919050565b61183b816117de565b61184581846117e9565b9250611850826117f4565b8060005b83811015611881578151611868878261180d565b965061187383611825565b925050600181019050611854565b505050505050565b60006118958383611832565b60608301905092915050565b6000602082019050919050565b6118b7816117be565b6118c181846117c9565b92506118cc826117d4565b8060005b838110156118fd5781516118e48782611889565b96506118ef836118a1565b9250506001810190506118d0565b505050505050565b60006101208201905061191b60008301846118ae565b92915050565b60008060006060848603121561193a576119396115f4565b5b60006119488682870161161a565b93505060206119598682870161161a565b925050604061196a8682870161161a565b9150509250925092565b600082825260208201905092915050565b7f496e76616c69642067616d650000000000000000000000000000000000000000600082015250565b60006119bb600c83611974565b91506119c682611985565b602082019050919050565b600060208201905081810360008301526119ea816119ae565b9050919050565b7f4e487b7100000000000000000000000000000000000000000000000000000000600052603260045260246000fd5b7f4e487b7100000000000000000000000000000000000000000000000000000000600052601160045260246000fd5b6000611a5a826115f9565b91507fffffffffffffffffffffffffffffffffffffffffffffffffffffffffffffffff8203611a8c57611a8b611a20565b5b600182019050919050565b6000604082019050611aac600083018561175c565b611ab9602083018461168e565b9392505050565b7f496e76616c6964205475726e0000000000000000000000000000000000000000600082015250565b6000611af6600c83611974565b9150611b0182611ac0565b602082019050919050565b60006020820190508181036000830152611b2581611ae9565b9050919050565b7f496e76616c69642063656c6c0000000000000000000000000000000000000000600082015250565b6000611b62600c83611974565b9150611b6d82611b2c565b602082019050919050565b60006020820190508181036000830152611b9181611b55565b9050919050565b6000611ba3826115f9565b9150611bae836115f9565b925082821015611bc157611bc0611a20565b5b828203905092915050565b6000608082019050611be1600083018761175c565b611bee602083018661168e565b611bfb604083018561175c565b611c08606083018461175c565b95945050505050565b6000611c1c826115f9565b9150611c27836115f9565b9250827fffffffffffffffffffffffffffffffffffffffffffffffffffffffffffffffff03821115611c5c57611c5b611a20565b5b828201905092915050565b7f416c7265616479206d6174636865642067616d65000000000000000000000000600082015250565b6000611c9d601483611974565b9150611ca882611c67565b602082019050919050565b60006020820190508181036000830152611ccc81611c90565b9050919050565b60008115159050919050565b611ce881611cd3565b82525050565b6000606082019050611d03600083018661175c565b611d10602083018561168e565b611d1d6040830184611cdf565b949350505050565b60008160601b9050919050565b6000611d3d82611d25565b9050919050565b6000611d4f82611d32565b9050919050565b611d67611d628261167c565b611d44565b82525050565b6000611d798285611d56565b601482019150611d898284611d56565b601482019150819050939250505056fea264697066735822122027ab357754cdc1584f92e0c1af90776f0575aa0064a23346f62bd3dbd6cc4e7964736f6c634300080d0033",
  "immutableReferences": {},
  "source": "// SPDX-License-Identifier: MIT\npragma solidity >=0.8.0 <0.9.0;\n\ncontract Tictactoe {\n    enum Winner {\n        None,\n        PlayerOne,\n        PlayerTwo,\n        Draw\n    }\n\n    enum Player {\n        None,\n        PlayerOne,\n        PlayerTwo\n    }\n\n    struct Game {\n        address playerOne; // creator\n        address playerTwo; // joiner\n        Player turn;\n        Winner winner;\n        Player[3][3] board;\n        uint256 emptyCells;\n    }\n\n    mapping (uint256 => Game) public games;\n    uint256 private counter;\n\n    constructor() public {\n    }\n\n    modifier isValidGame(uint256 _id) {\n        require(games[_id].playerOne != address(0), \"Invalid game\");\n        _;\n    }\n\n    function createGame() external {\n        counter++;\n        Game memory game;\n        game.playerOne = msg.sender;\n\n        games[counter] = game;\n\n        emit GameCreated(counter, msg.sender);\n    }\n    \n    function joinGame(uint256 _id) external isValidGame(_id) {\n        Game storage game = games[_id];\n        require(game.playerTwo == address(0), \"Already matched game\");\n        \n        game.playerTwo = msg.sender;\n\n        bool isCreatorFirstMove = _calcFirstPlayer(game.playerOne, game.playerTwo);\n        game.turn = isCreatorFirstMove ? Player.PlayerOne : Player.PlayerTwo;\n        game.emptyCells = 9;\n        \n        emit GameJoined(_id, msg.sender, isCreatorFirstMove);\n    }\n\n    function makeMove(uint256 _id, uint _x, uint _y) external isValidGame(_id) {\n        Game storage game = games[_id];\n        Player turn = Player.None;\n        if (game.turn == Player.PlayerOne && game.playerOne == msg.sender) {\n            turn = game.turn;\n        }\n        else if (game.turn == Player.PlayerTwo && game.playerTwo == msg.sender) {\n            turn = game.turn;\n        }\n        require(turn != Player.None, \"Invalid Turn\");\n        require(_x < 3 && _y < 3 && game.board[_x][_y] == Player.None, \"Invalid cell\");\n\n        game.board[_x][_y] = turn;\n        game.emptyCells = game.emptyCells - 1;\n\n        emit MoveMade(_id, msg.sender, _x, _y);\n\n        bool win = false;\n\n        if (game.board[0][_y] == game.board[1][_y] && game.board[1][_y] == game.board[2][_y]) win = true;\n        else if (game.board[_x][0] == game.board[_x][1] && game.board[_x][1] == game.board[_x][2]) win = true;\n        else if ((_x + _y) == 2 && game.board[2][0] == game.board[1][1] && game.board[1][1] == game.board[0][2]) win = true;\n        else if (_x == _y && game.board[0][0] == game.board[1][1] && game.board[1][1] == game.board[2][2]) win = true;\n\n        if (win) {\n            game.winner = turn == Player.PlayerOne ? Winner.PlayerOne : Winner.PlayerTwo;\n            game.turn = Player.None;\n            emit GameFinished(_id, turn == Player.PlayerOne ? game.playerOne : game.playerTwo);\n        }\n        else if (game.emptyCells == 0) {\n            game.winner = Winner.Draw;\n            game.turn = Player.None;\n            emit GameFinished(_id, address(0));\n        }\n        else {\n            game.turn = turn == Player.PlayerOne ? Player.PlayerTwo : Player.PlayerOne;\n        }\n    }\n\n    function getBoard(uint256 _id) public view isValidGame(_id) returns (uint256[3][3] memory board) {\n        Game storage game = games[_id];\n        for (uint i = 0; i < 3; i++) {\n            for (uint j = 0; j < 3; j++) {\n                board[i][j] = uint256(game.board[i][j]);\n            }\n        }\n    }\n\n    function _calcFirstPlayer(address playerOne, address playerTwo) private pure returns (bool) {\n        uint256 x = uint256(keccak256(abi.encodePacked(playerOne, playerTwo)));\n        uint256 y = (x >> 255);\n        return y == 0;\n    }\n\n    event GameCreated(uint256 id, address creator);\n    event GameJoined(uint256 id, address joiner, bool isCreatorFirstMove);\n    event MoveMade(uint256 id, address player, uint x, uint y);\n    event GameFinished(uint256 id, address winner);\n}\n",
  "sourcePath": "E:\\JobHunting\\20220511_Axelar\\solidity-tictactoe\\contracts\\Tictactoe.sol",
  "compiler": {
    "name": "solc",
    "version": "0.8.13+commit.abaa5c0e.Emscripten.clang"
  },
  "schemaVersion": "3.4.7",
  "updatedAt": "2022-05-16T22:45:04.206Z",
  "devdoc": {
    "kind": "dev",
    "methods": {},
    "version": 1
  },
  "userdoc": {
    "kind": "user",
    "methods": {},
    "version": 1
  }
}